:020000040801F1
:10200000C00A0020B52B0108B91A0308B91A030841
:10201000192F0308B91A0308B91A0308B91A0308D3
:10202000B91A0308B91A0308B91A0308B91A030838
:10203000B91A0308A4CD030899310308B91A030893
:10204000B91A0308B91A0308B91A0308B91A030818
:10205000B91A0308B91A0308B91A0308B91A030808
:10206000B91A0308B91A0308B91A0308B91A0308F8
:10207000B91A0308B91A0308B91A0308B91A0308E8
:10208000B91A0308B91A0308B91A0308B91A0308D8
:10209000B91A0308B91A0308B91A0308B91A0308C8
:1020A000B91A0308B91A0308B91A0308B91A0308B8
:1020B000B91A030839FE02085509030807C00308C6
:1020C00003C00308F900030813C003080BC003088A
:1020D000290903080FC0030895090308010A03082A
:1020E000B91A0308B91A0308B91A0308B91A030878
:1020F0001F2E0308B91A0308B91A0308B91A0308EE
:10210000B91A0308B91A0308B91A0308B91A030857
:10211000B91A0308B91A0308B91A0308B91A030847
:10212000B91A0308B91A0308B91A0308B91A030837
:10213000B91A0308B91A0308B91A0308B91A030827
:10214000B91A0308B91A0308B91A0308DB300308DF
:10215000B1E40208B91A0308B1BF0308B7BF030806
:10216000B91A0308B91A0308B91A0308B91A0308F7
:10217000F0B5114A114C124E00F00105E3695F07FA
:1021800013D40DB9334213D103EA00078F4207D1AC
:102190000B4A1A40002A0CBF00206FF00100F0BD6E
:1021A000013AEBD16FF00200F9E74FF0FF30F6E7AC
:1021B0006FF00100F3E700BF809698000000035025
:1021C000020001000B4B70B5D96911F480310DD1BB
:1021D00001244FF48072084E084DF46020462C64B0
:1021E0001A61FFF7C5FF3464EC6070BD6FF0010049
:1021F000FBE700BF00000350001003500020035015
:102200004FF4803238B50E4B0E4C9A66E56941F6B4
:10221000713315400122E3630B4B0021DA60022386
:10222000606121202361FFF7A3FF10B92120FFF790
:102230009FFF0122054BDA600DB10023E36338BD37
:102240000090005000000350001003500020035085
:1022500070B5134C6061E3695B071ED40E4656F8F7
:10226000043B8D18A361AE420BD104230021212031
:102270002361FFF77DFF58B9BDE870402120FFF7CB
:1022800077BF08210846FFF773FF10B104232361CD
:1022900070BD56F8043BA361E5E74FF0FF30F7E768
:1022A000000003502DE9F84315464FF48032184BD7
:1022B00089469A6603F51C33DF690646174041F6E6
:1022C0007132DA63012203F58053DFF84C80DA6063
:1022D00055B9284601220F4BDA601FB10022A3F541
:1022E0000053DA63BDE8F88306F5005404EA0804F5
:1022F000A41BAC4228BF2C46494622463046FFF775
:10230000A7FF0028E6D12644A1442D1BE0E700BF2B
:0C231000009000500020035000E0FFFF90
:10232000013800D0FCE77047002370B5404C0546EB
:102330008AB0E36318B1008823600CF055F93D487A
:1023400029F01BFA3C4E3D4B304633603C4B7360EA
:1023500024F0F5FD0021304617F094FA32A3D3E9BA
:102360000023A062C4E9062324F0F4FDD4E9062387
:1023700019431043C4E90601CDE900014FF0FF33D2
:102380004FF0FF32A06A29F04CFA02224FF0FF31E1
:10239000A06A29F04BFA01200BF072FE4FF4007393
:1023A00000222849A06A29F094FAB0F5007F38D1BC
:1023B00000239422CDE9073309933C23CDE903326E
:1023C00005939623A06A03A9069317F043FB35B340
:1023D000287C0CF0C3FA0546F0B9A06A29F059FB35
:1023E0000CF06AFA0BF02EFE20B14FF48070002141
:1023F00008F0B6FE0BF036FE20B14FF4006000216D
:1024000008F0AEFE24F0CCFE012017F091FA0E4A3F
:102410000E49A06A24F091FD28460AB070BDFF2045
:10242000D7E70725F8E700BF0DD5015520000000CC
:10243000300B0020690345EC541B002005DF010828
:10244000641B002054190020E36E0308236F030867
:102450000348044B834202D0034B03B11847704733
:102460009C2600209C26002000000000064B074907
:10247000C91A891048BF0131491003D0044B0BB170
:1024800001481847704700BF9C2600209C2600206A
:102490000000000010B5064C237843B9FFF7D8FFC1
:1024A000044B13B10448AFF300800123237010BD27
:1024B0000822002000000000AC26040808B5054BE7
:1024C0001BB105490548AFF30080BDE80840FFF7A0
:1024D000CDBF00BF00000000A80D0020AC260408FE
:1024E000A3F5803A704700BF174B002B08BF134B72
:1024F0009D46FFF7F5FF00218B460F461348144A0F
:10250000121A29F0C6FD0E4B002B00D098470D4B38
:10251000002B00D098470020002104000D000D483A
:10252000002802D00C48AFF300801EF081FC200090
:10253000290000F053F81EF069FC00BF00000800FD
:102540000000000000000000C00A0020C00A0020B7
:1025500004230020000000000000000003681C4A63
:1025600023F47F4323F00703934213B504D0194AA1
:1025700093421ED002B010BD174C20460FF0C2FE91
:1025800000B1FEE7022120780FF0F6FE034600B10D
:10259000FEE74FF4C8620090114620780FF0CAFEA3
:1025A00000B1FEE7022120780FF0FAFE0028E1D00A
:1025B000FEE7094C022120780FF0DEFE00B1FEE7B5
:1025C000022120780FF0ECFE0028D3D0FEE700BFF8
:1025D000A0000100A00006017626002008B520F02A
:1025E000B6FD00F041FA0021012001F01DFE00209F
:1025F00020F0A1FC4FF4FF42054BC3F808221FF066
:1026000065F920F0B1FD1FF062F904F0F9FEF8E77A
:1026100000C007507FB50368244A23F47F4323F0AA
:10262000070393423ED1002108221220204B0FF0D5
:10263000DDFE014600B1FEE7032214201D4B0FF022
:10264000D5FE014600B1FEE7052216201A4B0FF019
:10265000CDFE00B1FEE70DF1070102A80FF0F4FE78
:10266000014600B1FEE7BDF80C3008225BBAADF8B8
:1026700010309DF80B3018208DF81230FF238DF8A4
:102680001330FE238DF814309DF80A308DF8153084
:10269000BDF808305BBAADF8163004AB0FF0A6FEFB
:1026A00000B1FEE707B05DF804FB00BFA000010029
:1026B00048CB030851CB030855CB030808B5064B9C
:1026C000834207D1054B1B7823B1C8B20FF07CFEC3
:1026D00000B1FEE708BD00BFC00D002009220020A8
:1026E00030B500250368344A23F47F4323F0070301
:1026F00085B0934204460295ADF80C5035D002F5F2
:10270000802293420CD0A2F18272934251D12B4B82
:102710001B78002B4DD005B0BDE8304020F02FBD18
:10272000B0F805301B2B44D1FF2304A91A4611E948
:1027300003001FF073F9012814BF41F2FC151F4B71
:102740004FF01B0108BF187005F0FC0220790FF054
:1027500063FE00B1FEE71A4900902379194A09681F
:10276000194800F06FF820B3FEE7B0F80530B7EE77
:10277000047A07EE903AF8EE677AB0F8073067EE21
:10278000877A013307EE103AB8EEC77A67EE877A98
:10279000B1EE047A67EE877AFAFE677AFCEEE77AA2
:1027A00017EE903AB3F57A7F38BF4FF47A73044A44
:1027B000136005B030BD00BFA00006020922002052
:1027C000B0240020BD260108C00D002038B5054604
:1027D0001FF08DF900230B4A14685CB1AC4206D19E
:1027E000A96A6BB199621FF088F9012007E02346BE
:1027F000A46AF2E7002DF3D01FF07FF9204638BD20
:102800001160F0E7F80D002010B50446B0B105F0F6
:102810004FFA2046FFF7DAFF10B194F82C300BB9CD
:10282000002010BD064C2368002BF9D01FF05FF983
:102830002368013B23601FF060F9F1E72220F0E7F5
:10284000FC0D00202DE9F04385B0054691469846E1
:102850000E469DF8307009B9002F5CD12846FFF76D
:10286000D3FF0446002836D185F82C00686305F0B4
:102870002FFB864233D905F0CBFA2146844640F23D
:10288000E7304FF47A720023E6FB0C011EF02EF9BC
:102890004FF0FF3200231EF029F92B46E88611463F
:1028A0002846CDE900441D4A20F0C2FB044690B9F9
:1028B000C5E9089885F82D702E631FF018F9184A9D
:1028C000136833B31A469B6A002BFBD19562002331
:1028D000AB621FF012F9204605B0BDE8F08347B1A6
:1028E0002B4631462846CDE900440C4A05F0B4FA9F
:1028F000DCE7304603A905F091FA04460028EAD146
:102900002B462846CDE90077044A039920F06CFB5A
:10291000CCE71560DBE72124DDE700BF25290108AE
:10292000F80D002091F82C3013B50C4683B98B8E2E
:10293000CA8E93420ED243B9CDE9003320460B46EE
:10294000124A4FF0FF3120F033FBA38E0133A386F0
:1029500002B010BD52B191F82D3093B10123009314
:10296000D1E908232046096BFFF76CFF012384F8A7
:102970002C30074B1A6801321EBF1A6801321A60E8
:10298000E6E7084605F094F9F0E700BF25290108BD
:10299000FC0D00202DE9F041154E336833B34FF0A4
:1029A0000008144F1FF0A3F805463C6824B92846D8
:1029B000BDE8F0411FF0A1B894F82C30A3B1336802
:1029C00084F82C8013B13368013B336094F82D30C8
:1029D00013B92046FFF7FAFE28461FF08EF8D4E917
:1029E000083120469847DDE7A46ADFE7BDE8F081BB
:1029F000FC0D0020F80D0020034B1B68002B14BFBA
:102A000004200120704700BFFC0D0020024B186815
:102A1000B0FA80F040097047FC0D002008B504486A
:102A200020F093F91EF07CFFBDE8084000F01CB8D0
:102A3000A0E00308014820F088B900BFA0E0030827
:102A400007B508201FF064F802238DF80030054B0D
:102A5000684601931EF0F4FF082003B05DF804EB14
:102A60001FF061B8006A18102DE9F047434D88B097
:102A700001AC0FCD0FC495E807000125DFF81481E4
:102A800084E807003E4820F060F93E4F404620F0C1
:102A90005CF93D4B384601A903938DF8125001F0C3
:102AA000F1FD2B4629460422022001F009FD0221F6
:102AB0002A460846002301F003FD2B460422032189
:102AC000022001F0FDFC04222B461146022001F0F9
:102AD000F7FC2E4C2E4B1026C4F834374FF002135F
:102AE000C4F83037A3F58033C4F838371C2304F515
:102AF000005AC4F820374FF4487005F0E5FB04F5A0
:102B000080591420CAF8A06005F0DEFB2320C9F824
:102B1000A06005F0D9FBB9213846CAF8A0601FF0C3
:102B2000BEF8002329461A460220C9F8A06001F029
:102B3000C7FC002302211A46084601F0C1FC2B46BF
:102B400000220321022001F0BBFC2B4600220421BD
:102B5000022001F0B5FC384601F072FD002340462A
:102B6000C4F83437C4F83037C4F83837C4F82037DD
:102B700020F0EEF808B0BDE8F08700BF88CD03086C
:102B8000A0E0030800C0055000127A0000C0035006
:102B90000200030094E003080348044A0449121A9F
:102BA00092101EF08ABF00BF702101081C2301088B
:102BB0000423002008B500F02FF8FFF7EDFF124BBB
:102BC00012498B4212D30020114B12498B4218D369
:102BD000FFF78AFC186850F82240586840F82240F5
:102BE000013298688242F5D30C33EAE70022F8E715
:102BF0001C6844F8220001325C68A242F8D3083312
:102C0000E4E70022F8E700BFB4260408C026040861
:102C1000C0260408C02604084FF48041124B134A12
:102C200070B59A60D3F88820114D42F47002C3F851
:102C30008820104A05F5005491664FF0FF32226655
:102C40000D4A62660222C3F8D020BFF34F8FBFF354
:102C50006F8F4FF44036002003F0A6FE0020E660A0
:102C600003F094FE2E6170BD00ED00E0002001082D
:102C70000080004400900050F7FF3700014B1868B7
:102C8000704700BFB8240020014B1860704700BF98
:102C9000B8240020084B1B6F03F00703022B04D05D
:102CA000032B05D0012B05D0FEE7044B18687047B5
:102CB000034BFBE70348704700800050B824002016
:102CC000C0240020002D310108B5FFF7E3FF054BBC
:102CD0001B6FC3F303330133B0FBF3F0024B1860F7
:102CE00008BD00BF00800050B42400200048704799
:102CF00000B4C404014B1868704700BFC024002012
:102D0000054B1860054B1B6F03F00703032B01D124
:102D1000FFF7DABF704700BFC024002000800050DA
:102D200000487047002D31014FF0B4439868C0F35C
:102D300004400C280AD8DFE800F00B09090909094A
:102D4000072119091B1D1F000F48704700207047FD
:102D50009B6803F04073B3F1807F11D0B3F1007F23
:102D600010D00A4A002B08BF104670470848704729
:102D70000848704708487047084870470848704737
:102D80000848704708487047405DC60000093D008C
:102D9000C0EA210180BA8C010048E801005A6202B1
:102DA0000024F40080841E0040420F00014B18688C
:102DB000704700BFBC2400204FF000639B6A03F102
:102DC0007842B2F5903F03D21968064A914203D087
:102DD0000023037083607047012202709A689B6928
:102DE0004260F7E707B0CD5E4FF000639B6A10B515
:102DF00003F17842B2F5903F11D21968094A914225
:102E00000DD1094C227812F0FD0F01D0002010BD29
:102E1000DB6998470028FAD101232370F6E74FF4C5
:102E20008170F4E707B0CD5E0A2200204FF0005316
:102E3000014A1A6003F098BD02020FF0034B586874
:102E4000C0F30800003818BF0120704700ED00E013
:102E500013B50024294801941FF077FF01230422B1
:102E60000321204601F02CFB20461EF0EAFE012241
:102E7000234B0520C3F8442401A91FF05CFF002860
:102E800039D1204BD3F8F02042F00102C3F8F020F2
:102E9000D3F8FC2042F08072C3F8FC201A4AA3F554
:102EA0005D431A60019B194A03F5D52303F2FC43E5
:102EB000B3FBF2F3164A013B13610223C2F8F03070
:102EC0004FF48073C2F804334FF06043114AC3F8E3
:102ED000B02F114AC3F8802ED3F8002E42F480722E
:102EE000C3F8002EFF2283F82020D3F8002E22F40E
:102EF0008072C3F8002E02B010BD00BFA0E003082E
:102F000000D0035000ED00E0FF030040F8590D0031
:102F1000000004E055CEACC5090001004FF060434D
:102F2000D3F8802E30B5D20715D501240B4D84403F
:102F3000D5F8FC2042F08072C5F8FC20D3F8002EB2
:102F40002243C3F8002E53F82020002AF0D003F8C3
:102F50002010002030BD1120FCE700BF00ED00E094
:102F6000024B1968024B186816F098B8C424002068
:102F7000E424002070B59400224605460E4629F050
:102F8000DFFD431C0AD058B922463146284629F0B5
:102F900056F80028034808BF002070BD0248FCE72F
:102FA0000248FAE710E000F021E000F024E000F031
:102FB00010B5044629F0C0FD431C10D088B901F0BB
:102FC00035FB234620F003002044984201D1002025
:102FD00010BD53F8042B0132F7D00348F8E703483B
:102FE000F6E70348F4E700BF0EE000F021E000F050
:102FF00024E000F008B51EF073FD014B186008BD19
:10300000F0140020014B18681EF06EBDF014002073
:10301000044BD3F88420D206FBD4D3F88400C0F349
:1030200081107047004000502E4B98424AD022D861
:103030002D4B984240D014D82C4B984239D00AD806
:103040002B4B984232D02B4B98422FD02A4B984290
:103050002CD000207047294B9842FAD1284B186F8A
:103060007047284B98422AD0274B9842F1D1244BE5
:10307000D3F880007047254B98422BD009D8244BB9
:10308000984223D0234B9842E3D11D4BD3F88C00B8
:103090007047214B984221D003F5740303F5105378
:1030A0009842D6D1164BD3F898007047144B986DC0
:1030B0007047134B586E7047114B586F7047104B49
:1030C000986F70470E4BD3F8840070470C4BD3F8C1
:1030D000880070470A4BD3F890007047084BD3F82C
:1030E000940070470048E8010024F400C0CF6A0053
:1030F00080841E0000093D0040420F00405DC60074
:103100000080E00FC0EA210180BA8C01007E5603E6
:1031100080D54302006CDC020090D00338B5104B20
:103120000546D3F880300C4603F00303022B0BD086
:10313000032B0DD0012B0FD1FFF7ACFD0E2305B1F2
:10314000286004B1236038BDFFF7EEFD0723F6E7E2
:10315000FFF794FD0623F2E700231846EFE700BFD0
:103160000080005038B5184B0546D3F820010C46B6
:1031700000F00700062823D8DFE800F0040A0E1646
:10318000121A1E00012305B1286004B1236038BD66
:10319000FFF774FD0523F6E7FFF7ACFD0323F2E725
:1031A000FFF7C2FD0723EEE7FFF7BAFD0223EAE7C8
:1031B000FFF764FD0623E6E7FFF79CFD0423E2E743
:1031C00000231846DFE700BF0080005038B5174BDA
:1031D0000546D3F828310C4603F00703013B052BC5
:1031E00020D8DFE803F003131B0F0B17FFF746FD92
:1031F000052305B1286004B1236038BDFFF73EFD0B
:103200000623F6E7FFF790FD0723F2E7FFF772FDCD
:103210000323EEE7FFF76EFD0423EAE7FFF780FDE7
:103220000223E6E700231846E3E700BF00800050D2
:1032300073B50D460021114B0191D3F8804106462C
:1032400004F00304022C13D0032C0CD0012C13D156
:1032500001A8FFF787FF10240EB1019B336005B171
:103260002C6002B070BDFFF75FFD07240190F3E70B
:10327000FFF756FD0190EFE70C46EDE700800050A8
:10328000002337B50193164B0546D3F820320C4680
:1032900003F00703042B21D8DFE803F0030B11161A
:1032A0001B0001230DB1019A2A6004B1236003B011
:1032B00030BD002101A8FFF789FF1223F2E7FFF7D5
:1032C00033FD07230190EDE71EF004FC0A23019073
:1032D000E8E7FFF76BFD09230190E3E70023E1E74F
:1032E0000080005038B5104B0546D3F840310C46ED
:1032F00003F00303022B0BD0032B0DD0012B0FD1B6
:103300001EF0E8FB0A2305B1286004B1236038BD34
:10331000FFF74CFD0923F6E71EF0DFFB0C23F2E775
:1033200001230020EFE700BF00800050002337B5E5
:103330000193164B0546D3F860320C4603F00703A1
:10334000013B032B1FD8DFE803F0020E1914002104
:1033500001A8FFF707FF10230DB1019A2A6004B1FD
:10336000236003B030BD002101A8FFF7BBFF11238C
:10337000F2E7FFF7D9FC07230190EDE7FFF7D0FC58
:1033800002230190E8E70023E6E700BF0080005039
:10339000002337B50193164B0546D3F894320C46FB
:1033A00003F00703013B032B1FD8DFE803F0020EF5
:1033B0001914002101A8FFF7D5FE10230DB1019AC1
:1033C0002A6004B1236003B030BD002101A8FFF7DB
:1033D00089FF1123F2E7FFF7A7FC07230190EDE730
:1033E000FFF79EFC02230190E8E70023E6E700BF19
:1033F0000080005038B5144B0546D3F800020C4647
:1034000000F0070004281BD8DFE800F003090D11C5
:103410001500012305B1286004B1236038BD1EF0FA
:1034200059FB0A23F6E7FFF7C1FC0923F2E71EF078
:1034300054FB0C23EEE7FFF747FC0F23800AE9E774
:1034400000231846E6E700BF0080005038B5144B53
:103450000546D3F808020C4600F0070004281BD8E4
:10346000DFE800F003090D111500012305B1286004
:1034700004B1236038BD1EF02DFB0A23F6E7FFF7E9
:1034800095FC0923F2E71EF028FB0C23EEE7FFF77B
:103490001BFC0F23800AE9E700231846E6E700BF7C
:1034A0000080005038B5104B0546D3F840320C462A
:1034B00003F00303022B0BD0032B0DD0012B0FD1F4
:1034C0001EF008FB0A2305B1286004B1236038BD53
:1034D000FFF76CFC0923F6E71EF0FFFA0C23F2E776
:1034E00001230020EFE700BF0080005038B5104BEB
:1034F0000546D3F860310C4603F00303022B0BD0D2
:10350000032B0DD0012B0FD11EF0E4FA0A2305B1D5
:10351000286004B1236038BDFFF748FC0923F6E7B3
:103520001EF0DBFA0C23F2E701230020EFE700BFD7
:1035300000800050B0F5207F1FD009D8B0F5007F83
:1035400015D003D868B1B0F5C07F0AD000200CE0D8
:10355000B0F5607FFAD10B4BD3F88000C0F30110B7
:1035600003E0084B186FC0F3033001307047054B80
:10357000D3F89000C0F30460F7E7024B186FC0F374
:103580008020F2E70080005002464FF48030104B5C
:1035900010B598660020FFF7CDFF504341F6713219
:1035A0000C4BDC69DA635A6804F4803422F440126C
:1035B00059B90949884294BF0020012000050243FF
:1035C0005A600CB10022DA6310BD0449F2E700BF73
:1035D0000090005000000350005A6202002D31019B
:1035E000430905D0012B0CD0022B084B18BF002338
:1035F00000F01F0039B103F58053012282401A60A8
:103600007047034BF4E703F50053F6E7688000507A
:10361000648000501FB5002180280446CDE90011C8
:1036200000F0A58035D85E2846D85E2844D8DFE86B
:1036300000F0A24343434343434343434343434391
:10364000434343434343434343434343434343434A
:103650004343A2AAA2AABABABABABAAAC44DDA71A4
:103660004DAAAAAA4343434343434343AAAAAA7980
:10367000E4AA43434343434343434343434343BA9B
:10368000A2A2A2DF4D4DE9885EBF43434343439965
:10369000A200B0F5B06F00F090802DD8B0F5207F7B
:1036A00071D00CD8B0F5C07F65D0B0F5007F65D083
:1036B000B0F5807F00F08680009804B010BDB0F5B2
:1036C000607F6BD00DD8B0F5407FF5D1FFF7FCFAE5
:1036D00002464FF42070FFF72DFFB2FBF0F25208C4
:1036E0005AE0B0F5806F5ED0B0F5A06FE4D1002154
:1036F0006846FFF7C5FDDFE7B0F5106F78D016D844
:10370000B0F5E06F79D00AD8B0F5C06F6BD0B0F5E6
:10371000D06FD1D100216846FFF76CFECCE7B0F541
:10372000F06FC9D100216846FFF7E0FEC4E7B0F5AD
:10373000406F3DD013D8B0F5206F63D0B0F5286F3F
:10374000BAD10021324B0391D3F8703203F0030356
:10375000012B02D103A8FFF7C5FD039B3CE0B0F5A8
:10376000486FA9D100216846FFF712FEA4E7FFF7D2
:1037700091FA0090A0E7FFF7A7FAFAE7FFF78AFAB5
:103780000246204604E0FFF79FFA02464FF42070FD
:10379000FFF7D0FEB2FBF0F200928DE701A8FFF731
:1037A000BDFC019AEDE700216846FFF7DBFC83E7EB
:1037B00000216846FFF70AFD7EE700216846FFF713
:1037C00037FD79E74FF0E02302911B695B0705D5D0
:1037D000FFF77AFA0290029B00936DE703A902A813
:1037E000FFF780FDF7E700216846FFF77BFD63E701
:1037F00000216846FFF72AFE5EE700216846FFF7D2
:1038000051FE59E700216846FFF790FD54E700BFDD
:103810000080005008B58020FFF7FCFE034B984263
:103820009EBF4FF48032024B1A6708BD005A6202F5
:1038300000A000501FB503460020B3F5807F019023
:1038400000F0C18064D85D2B55D84C2B07D82D2BA8
:1038500048D8232B2CD8019805B05DF804FB4D3BCC
:10386000102BF8D801A252F823F000BFBD3901088F
:1038700057380108573801085738010873390108CB
:103880005738010857380108413A010891390108B1
:1038900037390108373A0108573801085738010805
:1038A0005738010857380108573801084B3A0108C2
:1038B000243B092BCFD801A252F823F0BD390108CF
:1038C000BD390108BD390108BD390108BD390108FC
:1038D00057380108B339010857380108533901082E
:1038E000F33901083D2B7FD03E2BB4D1002001A934
:1038F000FFF7D8FDAFE7802BADD1594B1B6F03F01D
:103900000703013B032BA6D8DFE803F0514E858D5A
:10391000B3F5F06F68D021D8B3F5B06F49D00FD8A8
:10392000B3F5607F00F0838095D3B3F5806F45D009
:10393000B3F5A06F8FD1002001A9FFF7A1FC8AE7A2
:10394000B3F5D06F55D0B3F5E06FCFD0B3F5C06FFE
:1039500081D1002001A9FFF7C5FC7CE7B3F5206FFA
:103960006ED00BD8B3F5086F48D0B3F5106F7FF465
:1039700072AF002001A9FFF769FD6CE7B3F5406F56
:1039800059D0B3F5486F60D0B3F5286F7FF463AFBB
:10399000334BD3F8703203F00303012B5AD0022BC0
:1039A0000CBF1523002300E00523019353E70223F6
:1039B000FBE7002001A9FFF73BFC4CE7002001A931
:1039C000FFF7D0FB47E74FF0E02302901B695B074E
:1039D00005D5FFF779F90D230393039BE5E703A9C9
:1039E00002A8FFF77FFCF8E7002001A9FFF77EFDA2
:1039F00031E7002001A9FFF7FDFC2CE7184BD3F8B5
:103A0000003103F00303022B07D0032B09D0012B55
:103A10000BD1FFF76FF90323C7E7FFF7C7F90923B6
:103A2000C3E71EF055F80823BFE70123BDE701A94E
:103A3000FFF774FB0FE7002001A9FFF7C7FB0AE7B8
:103A4000002001A9FFF772FC05E7002001A9FFF79C
:103A50009FFC00E7002103A8FFF744FC1123A4E723
:103A6000008000504FF48032074B0849586E03F530
:103A700080535A664B6A23F001034B62C3035CBF59
:103A8000034B5A66704700BF0080005000C00750CB
:103A900000A0005008B5FFF7CDFE092811D00A3864
:103AA000012802D94FF6FF7008BD4FF48002064B83
:103AB0005A6603F5D8335B6ADB07F3D54FF4FA7027
:103AC000F2E7024B1888EFE70090005064260020D0
:103AD00008B5FFF7AFFE03280ABF024B4FF6FF7091
:103AE000188808BD6226002038B504468020FFF7FC
:103AF000A1FE032800F083804FF48012524B4FF058
:103B0000A0615A6645F60E02504BC3F88020504A19
:103B100091624FF4803102F5805291629A6DD20326
:103B2000FCD4996D11F08041FBD1D4E9000212055B
:103B300042EA0062E07B0243207B42EA0042607B73
:103B400042EA0032A07B42EA80121A619869D4E905
:103B50000452120642EA856200F000400243A07E51
:103B6000E57E0243207E42EA0042607E42EA002275
:103B70009A611A6AE06922F00F0242EA8502354D25
:103B800000283DD11A6294F82420996A94F8200004
:103B9000D200294042EA40120A4394F8211042EA36
:103BA000011242F480329A622B49284A936D31EA1D
:103BB0000303FBD14FF08071254881621369A5682A
:103BC00023F4700343EA055313614FF0004383610C
:103BD00094F822300BB9214B996294F823303BB909
:103BE0004FF480321D4B9A62184A936D5B00FCD4EF
:103BF00094F825301BB1154B194AC3F8802038BD05
:103C0000024342F0080202281A6208D119614FF4F7
:103C10000852996113484FF47F411DF0C5FF0B49CD
:103C200094F822308A6A94F820001B062A4043EA5E
:103C30004013134394F8242043EAC20394F823204A
:103C400043EA02438B62D3E7009000500040005AE1
:103C50000050005AC7FFFEFE030001000060005A3A
:103C6000F1A7FFFF3440005A70B5194CFF28A66A2F
:103C70002BD8A36D4FF0807113F4803F18BF4FF421
:103C80008032144B18BF9A629962134AA36992F961
:103C9000005023F47F03054423F47F4343EA0023C9
:103CA00085F3080543EA0543A36132460B481DF03E
:103CB0007BFFA36DDB0301D4002070BD32464FF4BF
:103CC000803106481DF070FFF6E72120F5E700BFC0
:103CD0000040005A0050005A772600202840005A21
:103CE000014B93F900007047772600204FF4803392
:103CF00011481249826A8B62836D03F00303032B20
:103D0000FAD14FF080730E488B620B4B996D30EAFD
:103D10000101FBD1012009490865996D8907FCD48F
:103D2000054B996D8807FCD5996D8907FCD5054928
:103D300005481DF039BF00BF0040005A0050005A2E
:103D400003000100000001012840005AF0B5D0E94D
:103D500001434FF400061A4A4178057856664FF43D
:103D6000D156022702F5B8325662164E4F297760B7
:103D70004FF0010728BF4F2106F58056776016697E
:103D8000F603FCD441EA052151611B01417B43EA62
:103D900004230B43017B43EA41039360C37B817B94
:103DA0001B0143EA4113417C0B43017C43EA41037D
:103DB0005360837C13B16FF4D1535362F0BD00BFE5
:103DC0000090005000100250014B1880704700BF57
:103DD00064260020014B1880704700BF6226002037
:103DE0004FF4800208B5184B5A660223174A5360F5
:103DF000936813F48033FBD1012822D1FEF77AFFB8
:103E0000134B984215D003F5122303F5F86398423B
:103E100013D0104B00EB8002400AB3FBF0F3520AC0
:103E20000A49CA620B6301234B620022074B5A60A6
:103E300008BD45F67A13084AF2E745F61A03074A21
:103E4000EEE75362F1E700BF0090005000400250DF
:103E500000F0490264666666D8B80500BBCF05006D
:103E6000B0F5207F10B50C465DD008D8B0F5007FC6
:103E70004ED003D8C0B1B0F5C07F15D010BDB0F59D
:103E8000607FFBD12C4B4C1ED3F8FC202B4912F049
:103E9000807F4FEA041427D1D1F8803023F030031B
:103EA0002343C1F88030E9E71DF08DFE1DF099FE37
:103EB0004FF48031224B214A1967136F013C23F4E0
:103EC000704343EA04331367FEF7FEFE0446FFF730
:103ED0009FF8C0F1020120461DF07DFE00F042F87F
:103EE000BDE81040FFF796BCD3F8FC2022F08072AA
:103EF000C3F8FC20D1F8802022F030022243C1F820
:103F00008020D3F8FC2042F08072C3F8FC20B5E793
:103F10000A4A4C1ED2F8903023F0F85343EA046367
:103F2000C2F89030AAE7054A4C1E136F23F4806351
:103F300043EA84231367A1E700ED00E0008000500E
:103F40000090005008B50121022000F06DF91DF02D
:103F50003AFE1DF046FE4FF48032014B1A6708BD51
:103F60000090005008B54FF4C070FFF753FBBDE858
:103F700008400449884294BF012102214FF4207077
:103F8000FFF76EBF80F0FA024FF4C02270B505460D
:103F9000FFF74AF8314B04465A6603F598335A68DE
:103FA000012A04D12E494A605A689207FCD4802025
:103FB000FFF740FC052807D11DF005FE1DF011FE9E
:103FC0004FF48032254B1A67264B24F040749D42F3
:103FD00030D0254B9D4230D0FEF750FE854206463C
:103FE00003D90121284600F05FF9204BDA6812F06E
:103FF000060FFBD199689C609A68624012F4F81F22
:104000001ED12846FEF740FE8020FFF713FC05284E
:104010000DD1FEF759FE0446FEF7FAFFC0F102018A
:1040200020461DF0D8FDFFF79DFFFFF7F3FBAE42E2
:104030000CD270BD44F00074CEE744F08074CBE73E
:1040400080209960FFF7F6FB052805D0BDE8704099
:104050000121002000F028B93546DAE70090005031
:1040600000E0015040420F0080841E00000001501B
:10407000304B314A984251D020D8A3F5B703A3F56D
:104080005863984246D00DD82C4B984231D02C4BD7
:10409000984239D02B4B4FF4002198421DD0002379
:1040A000516622E0284B4FF400219842F7D1274B6C
:1040B000D3F8BC30516623F0407316E0244B98428D
:1040C00030D0244B984231D0234B4FF400219842FA
:1040D000E5D11E4BD3F8C830ECE71C4BD3F8A03029
:1040E000516623F0407343F000734FF0B442936085
:1040F00070474FF40021154BD3F8A030516623F0E0
:10410000407343F08073F0E7104BD3F8A0304FF4C6
:104110000021CFE70D4BD3F8B830F8E70B4BD3F8BD
:10412000C030F4E7094BD3F8CC30F0E7074BD3F8B5
:10413000D030ECE7C0EA21010090005080841E00DE
:1041400000093D0040420F000024F4000080E00F11
:104150000048E801005A620280BA8C01024A536B9F
:104160000342FCD1704700BF00400950044A417827
:10417000536F23F4407343EA01235367704700BF32
:10418000004000500E4A10B51369044643F0040382
:10419000136103F05FFB1DF040FD0A4B5B6E5B019A
:1041A00042BF094B094AC3F8202430BF1DF036FD39
:1041B00003F08AFB1CB9BDE81040FEF785BD10BDB9
:1041C00000ED00E00080005000E003500000FF0F11
:1041D0000C4A10B51369044643F0040313610A4BFB
:1041E0005B6E5B0142BF094B094AC3F8202403F010
:1041F00031FB30BF03F068FB1CB9BDE81040FEF78F
:1042000063BD10BD00ED00E00080005000E00350F1
:104210000000FF0F034A0179D36E23F030030B43F4
:10422000D366704700400050F8B504461C4BD3F8E5
:104230008420D106FBD4D3F88430C3F381139C428D
:104240002CD0FEF727FD012C064602D121461DF099
:10425000C2FC1DF045FC4FF00072124B07465A6637
:1042600020461DF0DEFC4FF480630D4D621E93402E
:104270002B676B6E9A0103D4D5F884309B060AD560
:1042800038461DF031FC022C08D13046BDE8F8401C
:1042900000211DF0A0BCD5F88430EAE7F8BD00BFCE
:1042A000004000500060005010B50C4608B9FEF701
:1042B000F1FC074B21461B783BB1064B984204D8D2
:1042C0000120BDE81040FFF7AFBF0220F9E700BFB3
:1042D0000B220020005A62020278034B01210020C9
:1042E0001A70FFF7E1BF00BF0B2200204FF0004221
:1042F00038B5244B244C5A664AF6CD33656C0146DA
:1043000005F00105236428BB0120FFF727FF636840
:10431000DB0715D51D4B586008461D4B226BD20795
:104320000CD4984208D1072415B1174B194A1A64C6
:1043300027F08FFA204638BD0130EFE79842F2D0DF
:104340000024F1E70132236B13F0080305D08A4201
:10435000F8D1E8E700220E49F5E78A42E3D02021B0
:104360000A4A91620121A2F5805251600649084A29
:10437000886A800603D49342D5D00133F8E793428C
:10438000DDE700BF00900050004009500060095078
:1043900040420F003254FFFF4FF0004238B5164B39
:1043A00001465A664AF6CD33144C154A656C2364AF
:1043B00043780B205B0043F00103D363FFF7CEFE8D
:1043C00063688A7823F4F87343EA02136360CA7857
:1043D0004B7943EA0223A3600A798B7943EA0223EB
:1043E00023610878FFF782FFEB0744BF054B236486
:1043F00027F02FFA012038BD0090005000400950EE
:10440000004000503254FFFF4FF00042124B70B595
:104410005D6E03F580535A664AF6CD3304460F4964
:1044200080204E6C0B64FFF799FE0B6A23F00F039C
:104430000F2C94BF234343F00F030B62F30744BFD9
:10444000074B0B64002DA2BF4FF00042054B5A668C
:1044500027F0FFF970BD00BF0080005000400950F8
:104460003254FFFF00A000504FF00042104B70B5D7
:104470005D6E03F580535A664AF6CD3304460D4906
:1044800080204E6C0B64FFF769FE0B6A23F4F8532F
:1044900043EA04230B62F30744BF074B0B64002D70
:1044A000A2BF4FF00042054B5A6627F0D2F970BD0B
:1044B00000800050004009503254FFFF00A000501F
:1044C0002DE9F04105460F461E4690464AB10123AC
:1044D0003022194C8B4002FB004436B304F5825461
:1044E00023600F21072F05EB450388BFA7F10804C0
:1044F0004FEA0313114895BFBC00A40004330C33EA
:1045000008FA04F2A14018441DF08CFBB8F1000F2A
:1045100009D101233021084ABB4001FB05223EB1ED
:1045200002F582521360BDE8F08104F50154D7E72B
:1045300002F50152F6E700BF00C0035030C003503F
:104540004FF48032054B9A6641F6713203F51C3305
:10455000DA63012203F50053DA60704700900050DF
:1045600041F671320121064BDA6303F50052D16046
:104570000022DA634FF48032A3F518339A6670474D
:1045800000000350013831289ABF024B185C00200C
:10459000704700BF15CE030838B5C2F306250446A0
:1045A00002F0070241B942EA052242F440220634F1
:1045B000074B43F8242038BD114628461DF042FB26
:1045C00002462846FFF7DEFF163442EA0022EFE7F4
:1045D000008003504FF48032064B5A6603F5E62301
:1045E0009B69C3F38512827003F03F021B0B42707C
:1045F000037070470090005040F6B732064B5B687E
:104600009BB293429FBF4FF47A72B3FBF2F3034A1B
:10461000D05C88BF002070470080E00F47CE0308C1
:10462000014B986CD96C70470080E00F0120034B60
:104630009B680A3303F01F03984070470080E00F27
:10464000012100F5805310B5596040F6AA6341F28C
:10465000050243610023094C8360C365C26000F515
:1046600000520361C361C3649464054C8365A04236
:1046700004BF03654365516010BD00BFFFFF01002B
:1046800000C0055038B50D46FFF7DAFF012200F5EE
:1046900080535A602B8AA97B826843F0010343EA66
:1046A00081231343836083682A7D044643EA42736F
:1046B0008360AB7C5BB1194B984202BFEA7CA3F5E7
:1046C0001033C3F8C821C36D43F08003C3652B7B4F
:1046D0002046D5E9011243F48053E3601DF0CFFA80
:1046E0006B7B0BB1102363616B7D1BB1A36843F43B
:1046F0008033A360AB7D1BB1A36843F40043A36088
:10470000EB7D2A7E1B07120503F0E04302F4E00272
:104710001343A3652B78636138BD00BF00C005500B
:10472000034B5A68D20702D5DA69002AF9D17047DB
:1047300000800A50054B9A689107FCD45A6892078A
:10474000F9D4DA69002AF6D1704700BF00800A5018
:1047500008B5FFF7E5FF0222014B1A6108BD00BF53
:1047600000800A5008B5FFF7E5FF0122024B03F570
:1047700080514A601A6108BD00800A5008B5044B98
:104780005968012903D1FFF7E3FF024B596008BDC7
:1047900000800A5000A00A5010B5064CFFF7CAFF6F
:1047A0006368012B03D1FFF7E9FFFFF7C3FF03782D
:1047B000E36010BD00800A50B8B94A680B7812B1A6
:1047C000127843EAC2034A7843EA42038A6812B184
:1047D000127843EA82138A7843EA8203CA6812B1E4
:1047E000127843EA4223014A9364704700800A50DA
:1047F00008B9014B5964704700900A5008B9014B41
:104800005964704700A00A5008B9014B19647047F9
:1048100000A00A5010B9024B186C70470020704776
:1048200000800A5048B911B1012903D07047044BE8
:10483000D86C7047024B186D70470020704700BF5E
:1048400000800A5040B911B1012903D07047034BD1
:10485000DA647047014B1A65704700BF00800A5048
:1048600010B9024B586D70470020704700800A5005
:1048700038B50446054D27F010F80FCC0FC594E865
:10488000030085E80300002038BD00BFF4140020B9
:1048900047F6FF739A42F0B56FD002296FD8394BB3
:1048A0005B5C012B6BD8384DDF0005EBC30415F8BA
:1048B0003330A178012B13D10025E078401AA842AB
:1048C00002D80844C0B2F0BD431B6668A0EB530396
:1048D00036F913609642D4BF1D4603F1FF30EEE770
:1048E00060680028EFD0B0F90040944204DBB0F9D2
:1048F00002409442B8BF144683883D44FF2B19BF41
:10490000C8224FF0280CB0F90620B0F908C0A2EB7D
:1049100004030CBF0126002693FBFCF333446E789E
:104920001BB29E4201DD002B01DA731E1BB24FF455
:104930007A7C01339BB2071D5D1E2DB24FEAC50E76
:1049400000EBC505EA88AD689E4214FB025222EADC
:10495000E27202F15C02B2FBFCF204DD37F8335084
:1049600001339542E8D200EB0E039888904228BFAD
:104970001046884238BF0846A4E7FF20A3E700207E
:10498000A1E700BF4ACE0308F41400200229F0B5C5
:1049900055D82C4B585C012851D82B4C04EBC00146
:1049A00014F830004B6801280FD1C8788C789042F9
:1049B00094BFC4EB0001C4EB0201001BCAB28242E7
:1049C000C8BF002233F91200F0BD002B37D0887821
:1049D000904202D3B3F90200F6E7CC78B3F90000B5
:1049E0009442F1D94C789988013CA1F1FF067142BB
:1049F00003F10405E4B2714103F10C07CEB2B442F5
:104A000016D805EBC1014FF47A756A43B1F902403B
:104A10004968521A04EBD47102EB610292FBF4F282
:104A20009042D1DBB3F902009042CDDC10B2CBE76B
:104A300037F831C04E1C9445E3D33146DEE70348D6
:104A4000C2E700BF4ACE0308F41400200080FFFF35
:104A500008B50448FFF70CFFBDE80840012026F028
:104A600020BF00BF50CE03080048704766260020D4
:104A70007FB50222084B0949CDE901234FF040736D
:104A8000CDE90313052301A94FF0FF30059326F06C
:104A90003CFF07B05DF804FB006A18000003040047
:104AA00008B5B0B14FF480620B4B9A661DF04FFC15
:104AB0004FF098435A6CD202FCD54FF48062586D87
:104AC000064B10F470209A6604D0BDE808401DF033
:104AD000F8B8212008BD00BF0090005000A0005091
:104AE0002DE9F0418CB08846DDE912761D4604467A
:104AF000002847D0002945D0002F43D0002E41D0B8
:104B000013F00F033ED120482049A360002A08BFBC
:104B10000146E361C4E90013404609A91DF0CDF93F
:104B200068BB204609991DF009FC294620461DF066
:104B300005FC6946404600F0DFFA00BB69462046A6
:104B40001DF0E8FB404603A91DF0B6FAB8B92046AF
:104B500003A91DF0DFFB06970127204645F000550D
:104B600006A9079708951DF0D5FB204609A90996C7
:104B70000A970B951DF0D8FB2046FFF791FF0CB06C
:104B8000BDE8F0812120FAE70001000400010104E2
:104B90002DE9F0418CB0884616461D460446129F0A
:104BA00000284BD0002949D0002A47D0002F45D0FB
:104BB0000B68103B102B41D8214A22FA03F3D90786
:104BC0003CD500231F4A8360C0E90023C36109A9C3
:104BD00040461DF072F970BB204609991DF0AEFBEE
:104BE000294620461DF0AAFB6946404600F084FA9B
:104BF00008BB694620461DF08DFB404603A91DF009
:104C00005BFAC0B9204603A91DF084FB0696012675
:104C1000204606A945F00055079608951DF07AFB39
:104C2000094B204609A909970A960B931DF07CFBB6
:104C30002046FFF735FF0CB0BDE8F0812120FAE7F0
:104C4000010101000000040410000020F0B50C4632
:104C500017461E46054695B0002874D0002972D02C
:104C6000002A70D0002B6ED0036B0F2B5BD8002373
:104C7000364A3846C4E90023A360E36111A91DF058
:104C80001CF900285BD1204611991DF057FB296BB8
:104C900020460F2984BF01F00F0110311DF04EFB9B
:104CA000384602A900F028FA002848D1204602A977
:104CB0001DF030FB384605A91DF0FEF900283ED155
:104CC000204605A91DF026FB0122214B08950992DB
:104CD0000A932B6B05F1100003F00F0141F0005116
:104CE0000B900F2B0C920D910E900F9243F00052EF
:104CF000109226D90A9B08A923F0005320460A9354
:104D00001DF008FB0BA920461DF004FB01231196A2
:104D100012930F4B204611A913931DF005FB20465B
:104D2000FFF7BEFE0BE000F120030190009301228B
:104D3000102339462046FFF7D3FE002897D015B040
:104D4000F0BD0EA9DFE72120F9E700BF0000040451
:104D5000100000202DE9F04F9BB00C4690461F46F6
:104D60000546DDF89090002800F0B280002900F0A0
:104D7000AF80002A00F0AC80002B00F0A980026B0D
:104D800002EB09031B09B3EB121F02F00F0600F040
:104D9000978000234F4A8B60C1E90023CB614046D6
:104DA00017A91DF08AF80346002840F0858006EB1D
:104DB000090B204617992BF00F0A1DF0BFFA514638
:104DC00020461DF0BBFA404602A900F095F90346C3
:104DD000002871D1204602A91DF09CFA404605A981
:104DE0001DF06AF90346002866D14FF001080190D2
:104DF00005A920461DF08EFA374A204608A90895D5
:104E0000CDF824800A921DF085FA46F00051AAEBF5
:104E1000060605F1100346F000560B93CDF83080DE
:104E20000D910E97CDF83C8010960D99204621F0FB
:104E300000510D910BA900931DF06CFA20460EA9AC
:104E40001DF068FA019B244A1193AAF1100343F064
:104E50000053CDF84880139305F120031493CDF847
:104E600054801692139B204643F080431393139B68
:104E700011A923F0005313931DF056FA204614A9EC
:104E80001DF052FA144A17A920461795CDF86080F4
:104E900019921DF049FA2046FFF702FEAAEB0B011A
:104EA00049440190ABEB0A020098394427F0F9F825
:104EB000019B2A6B4A442A6318461BB0BDE8F08F59
:104EC00010304A463946304427F0EBF80023F0E72B
:104ED0002123F1E703020004100000202DE9FF4721
:104EE0004FF000080E4617460446CDF80080002813
:104EF00059D022B90025284604B0BDE8F087002922
:104F000051D032F0030902F0030A1FD04FF0E063E2
:104F1000C0E9003801230191C0F808800293C0F86D
:104F20001C8049F0005301A903931DF0FDF9494687
:104F300020461DF003FA2046FFF7B2FD054628B1D2
:104F40004A464146304627F0A4F8D4E7BAF1000FAC
:104F5000D0D04FF000084FF0E063C4E900380123DF
:104F6000CDF804D00293114B204601A9C4F8088063
:104F7000C4F81C8003931DF0D7F9042120461DF0CE
:104F8000DDF92046FFF78CFD054608B13A46D8E723
:104F9000009A4E44EB00013522FA03F3AA4506F8C5
:104FA000013BF7D1A6E72125A5E700BF04000020BB
:104FB000F0B50F4616461D46044693B010B92120A1
:104FC00013B0F0BD0029FAD0002AF8D0002BF6D09B
:104FD000002331461A4638461CF014FF0028EFD152
:104FE000304602A91CF0AAFE0028E9D1EB68022B8A
:104FF0000AD039683F48029A81426B6902D0183062
:10500000814270D19A42DAD82B68002BD7D14FF069
:1050100060623846C4E90023A360E36101A91CF083
:105020004CFF0028CCD10199204621F4F061019178
:105030001DF084F9694628461CF03FFF0028BFD1C7
:10504000204600991DF07AF9384609A900F054F875
:105050000028B5D1204609A91DF05CF938460CA9F5
:105060001DF02AF80028ABD120460CA91DF052F9FA
:10507000EB684BB1284606A900F03EF800289FD106
:10508000204606A91DF046F9304603A91DF014F884
:10509000002895D1B368DA040CD59B0427D50621E6
:1050A000F36932691B6801FB03225B0043F0005384
:1050B00003920593204603A91DF02CF928460FA959
:1050C0001CF0FAFF00287FF47BAF20460FA91DF0EB
:1050D0002BF903252046FFF7E3FC01287FF470AF8E
:1050E000013DF7D16CE7B3EB420F8DD267E7292082
:1050F00066E700BF200000B090B189B101234B608A
:10510000C368013B012B08D88269064B1AB10A60BB
:1051100000208B607047044AF9E74FF00053F7E72F
:10512000212070470800002004E0030870B50E46F7
:10513000154604468AB000285BD0002959D0002AC1
:1051400057D0012329461A4630461CF05BFE002842
:105150004DD1B36813F4C04F4BD0AB6803F4C043D8
:10516000B3F5005F45D1254BA060C4E90030E06194
:1051700007A930461CF0A1FE002838D12046079927
:105180001DF0DCF8304601A9FFF7B6FF78BB2046DA
:105190001DF0C0F8304604A91CF08EFF38BB204635
:1051A00004A91DF0B7F8EB681BBBAB6803F4C04360
:1051B000B3F5005F1DD1694628461CF0EAFDB0B981
:1051C000009B6A699A4216D32A6943F000530792FA
:1051D0000122204607A90892032509931DF0A4F88F
:1051E0002046FFF75DFC012801D1013DF8D10AB04E
:1051F00070BD2120FBE71D20F9E700BF0000010280
:1052000006289ABF014B185C002070470CE0030889
:1052100030B5154B87B00293144B0390049346F6B8
:1052200011030D46059300F077F91428044616D1B2
:1052300068461DF039F94FF0A843032202A95A63CA
:1052400019601D619A63DA6B9207FCD1142C02D1AC
:1052500068461DF037F900F093F9044601E0002894
:10526000E9D0204607B030BD0C1500200400002016
:105270002DE9F04FB1B005468C469E46E8466F4E8C
:10528000DDF8EC90409C06F1100A474630687168E2
:10529000083603C75645B846F7D13E9B03EB0208D4
:1052A000C8F1000A0AF00F0AB9F1000F00F09D8062
:1052B000C9F1000707F00F070121DDF8FCB044F049
:1052C0000050C4F11006CDF810B0059106903002E0
:1052D00000F4F85040F021000790B9F1000F40F0C1
:1052E0008680CDF820D047F00050002D00F084805B
:1052F000099121210A9041EA07210B9142F00050C7
:10530000CDF830C03D9B08A94FEA0A2C0D910E90B4
:105310004CF041000F901093002A75D13E9B1191E3
:1053200043F0005312933C9B1390149310AB1593CE
:10533000434B444A169340F611031793424B002106
:10534000002D08BF1346189314AB19933F4B10223E
:105350001A9311231B931CAB184626F09AFE0122C8
:105360001D92002246F0804603461E96239205B900
:10537000EB46102CCDF880B024AE4BD10123224651
:10538000002130462193229426F083FE20AB002199
:1053900025938F4218BF334647F0804226923A9AAF
:1053A0002CA828922993B2FA82F35B0949EA837305
:1053B00010222B912A9326F06CFEB9F1000F00D039
:1053C00028AED04448F080432CA918A82D962E93DF
:1053D000FFF71EFF30B92DB90346A34225D100289F
:1053E00018BF2C2031B0BDE8F08F102764E7CDF84E
:1053F00020E049F0005078E7002C3FF479AF04A991
:10540000099101210A9076E73E9B0CAA1192412056
:10541000129388E71022002130462193229426F02F
:1054200038FE002CB2D10123B1E703F1C0026A4477
:1054300012F8C02C01331043CFE700BF13E003087C
:105440001000002028E003082CE0030804000020DE
:10545000F0B5C0299FB0DDE9244557D0B1F5807F74
:1054600004D0802948D029201FB0F0BD01265CB1AE
:1054700040F23447029410240396049421240197A7
:105480000594069502AC0AE040F2144702941024F9
:10549000039604942124059401240197069507940A
:1054A00001251024089409950A9221220B950C9449
:1054B0000D92174A0AAD0E92164A0F95109242F6B7
:1054C00011021192129313951494159201AA169237
:1054D000D3B112AB1793042318931123199316AB6E
:1054E0001A901B9340F61103C9081C911AA806A92B
:1054F0001D93FFF78DFEB7E7012614B94FF48267BD
:10550000C4E74FF48667B5E70EABE3E70F20ABE7E0
:1055100024E003081000001038B5164B5A6E42F014
:1055200004025A66D3F8802242F00102C3F88022B6
:10553000114B5B68C3F3080343B14FF0A842D36B30
:1055400013F0430FFBD11424204638BD4FF0A8437D
:10555000DC6B14F04304FBD1084D2B681BB904210C
:10556000284603F0EFF82B68013343F000432B602B
:10557000EAE700BF0080005000ED00E00C150020BD
:10558000014B00205B68704700ED00E0012300F054
:105590001F02A0F506200949A0F55060400993407C
:1055A00051F820201A4341F82020054951F82020C5
:1055B00022EA030241F82020704700BF2415002092
:1055C000101500200121A0F506230E4AA3F5506313
:1055D0005B0900F01F00814052F82300014342F8AC
:1055E00023100949D1E90030034488680344C8689E
:1055F000096903445B1802BFC2E90033C2E9023300
:105600001361704710150020241500202DE9F04F7C
:10561000A9B003921D4604460822339ECDE9040139
:10562000414021FA02F34B40980702F1080218BFEB
:105630009B00202A1C44F4D18123B4FBF3F303EB39
:10564000C313E41A734B04F506241B7804F5506465
:10565000002B3ED1FDF784FC074620B16FF091008E
:1056600029B0BDE8F08F0146402208A826F011FDC0
:105670004022394618A826F00CFDDFF8B481DFF887
:10568000B491C3460BF10F0ACDF800A0102208A96F
:105690005B46D9F8000025F0AFFE0022014608F174
:1056A000100808AF914246D1CDF800A05B46102209
:1056B000D9F8000018A925F0A8FE4FF0000A83468B
:1056C00018AFD34541D1544B9845DAD10122514B03
:1056D0001A704FF0810A4FF00008DFF85CB1A4F5B2
:1056E0000627A7F550635B095BF8232004F01F0130
:1056F000CA40D2073DD4494A52F82330CB40DB0799
:105700002AD5B8F1000F08BFA0468123A7F6FF47AE
:10571000B7FBF3F303EBC313FF1A07F50624BAF143
:10572000010A04F55064DAD1039BBBB1B8F1000F54
:1057300014D0444619E057F8040BCDE90612FFF7E0
:1057400025FF079A06990132ACE757F8040BFFF7DB
:1057500039FF0AF1010AB4E7039B13B96FF08B001C
:105760007EE7B8F1000F18BF4446349B00201C6050
:1057700076E7329B13B10023329A13600EB10023F7
:1057800033601023DFF8AC9000932A4600232146B3
:10579000D9F8000013F0F4FD60BB32992A68204B61
:1057A000C9B99A4206D02146D9F8000013F080FE0C
:1057B0000028D3D1D5E90223DDE90410834208BFD4
:1057C0008A42A2D1039B002BCFD06B68012BCCD196
:1057D0006FF0840044E7102032999A420860E2D1C9
:1057E000002EE7D033462146D9F8000018AA13F05E
:1057F0001BFE48B10B4B9842D5D00B4B9842D2D0F0
:105800000A4B9842D6D029E7329A336812689B1A1D
:105810003360CFE70C220020007108001015002033
:10582000105D175EFFDF00F011E000F0FEDF00F01A
:10583000006D0800E4240020241500202DE9F04F1D
:1058400087B08246894698461646DDF840B02AB1B0
:10585000002B4FD040F26C739A424ED8BBF1010F2F
:105860004ED8002406F110073946012005941DF09A
:1058700043FB0546002846D021463A4626F009FC5F
:1058800005ABCDE9014300942B4601225046494621
:10589000FFF7BCFE044680B110F18C0F08BF6FF01B
:1058A0008D043A460021284626F0F3FB28461DF0D9
:1058B00005FB204607B0BDE8F08F144BC5E902A9EF
:1058C0002B60C5F804B02EB13246414605F11000F8
:1058D00026F0E7FB059E0E483B462A463146006807
:1058E00013F0B6FC18B93046FFF750FED9E76FF059
:1058F0009104D6E76FF08604DBE76FF09104D8E7F8
:105900006FF08504D5E76FF08C04D2E7105D175E69
:10591000E42400202DE9F0438DB08146DDE91478C0
:105920000E4615461C469BB1B8F1000F05D16FF02D
:10593000860630460DB0BDE8F083002FF7D0B7F1F2
:10594000005FF4D3C3F1005303F580239F42EED8E8
:105950001022002108A826F09CFB002207AB02932E
:1059600005AB019306AB31460093484608ABCDE941
:105970000522FFF74BFE06460028DAD1059BA4B1AD
:10598000AB4215D853EA0504D1D1069B0B48C8F8A1
:10599000004000943A46079900682B4413F0F0FC4D
:1059A000002818BF6FF09106C3E7AB42EDD2BEE707
:1059B0005B1B9C4228BF1C46E7E700BFE424002095
:1059C00030B58DB00C4605461022002108A826F0FF
:1059D00060FB002207AB029305AB019306AB2146A7
:1059E0000093284608ABCDE90522FFF70FFE0446D9
:1059F000D8B9099B012B1BD0079D104B294618686D
:105A000013F056FDB8B90122A5F506230C49A3F5FC
:105A100050635B0905F01F00824051F823004240AB
:105A2000284641F82320FFF7CDFD20460DB030BDBC
:105A30006FF08404F9E76FF09104F6E7E4240020A6
:105A4000241500202DE9F04F93B00446DDE91E75C2
:105A5000DDE920689346DDE91C028A46DDF888907E
:105A600029B96FF08604204613B0BDE8F08FBBF172
:105A7000000FF6D00FB9002DF3D108B9002AF0D1EC
:105A800016B9B8F1000FECD1B9F1000FE9D02C4AEA
:105A9000934251D12388B3F5105F4DD120220021CC
:105AA00002A826F0F6FA202200210AA826F0F1FA30
:105AB00002A81CF034F910B16FF09204D3E720462D
:105AC0005A4651460AAB00F00FFA04460028CAD1E4
:105AD0000A981CF04FFD04460028C4D115B9C9F836
:105AE0000050C0E7B74224D27B199E4221D24545DF
:105AF000B7D839462A46304626F0B1FA374615F06F
:105B00000F0AAED1CDE900762B4652460AA902A86B
:105B1000FEF7E6FF07460028E1D0424651463046F0
:105B200026F0B7FA012FC9F800A0C5D16FF08B0499
:105B300099E74545E3D994E76FF0850493E700BF03
:105B4000004440042DE9F047C2B00C46074600214E
:105B5000154601A820229A464A9EDDF83091DDF8CC
:105B6000388126F096FA2022002109A826F091FA21
:105B70002022002111A826F08CFA2022002119A849
:105B800026F087FA0021802222A8219126F081FAAE
:105B90003CB135B12EB1B9F1000F02D0B8F1000F10
:105BA00005D16FF08604204642B0BDE8F087218819
:105BB000628801F4E043B3F5804FF2D02C4B2D48BE
:105BC0003B4043F01063834202D06FF08504EAE764
:105BD000D31DBAEBD30F4FEAD307E2D34D9B9F42BD
:105BE0003FD847F212139942EFD1B2F5807FECD142
:105BF000214B4B98099384230230013620F0030097
:105C000016937B000D960E9012932046524629461D
:105C100021AE01AB159600F067F904460028C2D109
:105C20000B9B119043F4005319A80B931CF077F8C9
:105C3000D0B911AB09AA01A919A8FFF7B9F905460E
:105C400010B14828ADD1C0E73A463146484626F063
:105C500028FA2B4673550135842DFBD1C8F8007006
:105C6000A1E76FF089049EE76FF092049BE700BF05
:105C70000000FFF600000209200000802DE9F0413D
:105C80000D4614461E46C2B010B96FF086000DE0F6
:105C90000029FAD0002AF8D0002BF6D0038803F4AC
:105CA0004F42B2F5824F04D06FF0850042B0BDE89C
:105CB000F081DAB2122AF7D123F0FF03B3F5E24FF5
:105CC00027D143883360FBB9E3003360B3F5807FAD
:105CD000EAD10023184643492E19214411F8014DF9
:105CE00016F8012D1043121B0CBF4FF0FF34002497
:105CF000B54203EA040343EA0203EFD10028C4D00B
:105D0000002BC2DA0020D1E7DA1DB4EBD20FDDD0D0
:105D1000BBE7B3F5824F61D10B78042BB5D12022BC
:105D20000021684626F0B5F968461BF0F8FF002808
:105D300051D10027842239460DEB0200209726F02E
:105D4000A8F9202201234FF0880839460DEB020004
:105D5000013C8DF88030013526F09BF92022394630
:105D60000D9410A8E4000C95640826F092F920AD7B
:105D70002022394618A81495CDF8548026F089F9C8
:105D8000E02CCDE91C58346003D0B4F5807F7FF45B
:105D90007CAF154B0734089310934FF400530A93CC
:105DA0004FF48043E408129308AA18AB68466400D5
:105DB00010A91994FFF7FCF833680733DB085A0081
:105DC00033B10021531E013B297005F10105FAD2C0
:105DD000002897D059E76FF0920067E76FF09600C0
:105DE00064E700BF30E0030820000080F8B51346E8
:105DF00042880C460732072A4FEAD20101D0A1425D
:105E00006DD146680588C76820221846002126F013
:105E100040F9360A034626B1012E11D06FF08B00EF
:105E2000F8BD002C5BD041F20102954205D0B5F5DA
:105E3000885F02D0B5F5905F1BD15C600020EFE772
:105E4000C660002C4BD041F2010295420BD15C6040
:105E5000B90707F001021FD4002AEFD19A6842F077
:105E600080729A60EAE7B5F5885FF0D0B5F5905F8B
:105E7000EDD0B5F5105F0AD1182C03D0202C01D03D
:105E8000102C2CD1C3E90044002ED7D0E0E705F454
:105E90004F42B2F5824F02D06FF08500C0E7EAB200
:105EA000122AF9D1202CF7D10E4A25F0FF05B5F5BD
:105EB000E24F1A600CD0B5F5824F10D14FF400526A
:105EC00017F4705F09D017F4864F04D09A60E3E7A7
:105ED0004FF48042F4E742F480629A60D4E76FF0B6
:105EE00086009DE7200000802DE9F0411746002242
:105EF0001C4643688CB01B0A80460D46009204D0B5
:105F0000012B56D06FF08B008EE0008820F0FF034D
:105F1000B3F5824F15D1B8F802200732D2080092AB
:105F20001CF034FB002800F0E1800B78042B05D135
:105F3000013FB7EB420F05F1010503D06FF086007A
:105F400072E00097009E224631464046FFF74EFF22
:105F5000002869D1FA1CC4E9030522F0030262613A
:105F6000002E00F0A4802022002101A826F091F844
:105F70003146404601AAFFF739FF002840F09780DC
:105F80002368019A9A4240F092806368029A9A428A
:105F900040F08D80A368039A9A4240F08880A369FC
:105FA000079A9A4240F08380E369089A9A423BD06C
:105FB0007DE0032FC2D90B78012B40F09A804978FD
:105FC00000294BD0F73908299CD801A353F821F0B8
:105FD00039600108F55F0108055F01082F600108BD
:105FE000055F010853600108055F0108436001086F
:105FF0004B6001084FF41056F8253F4F1C2200213A
:1060000002A826F046F803230197CDE9043503964C
:1060100001AA09AD134603CBAB42206061601A466A
:1060200004F10804F6D100200CB0BDE8F08110277F
:106030004FF08076FA25E1E720274FF00076F7252C
:10604000DCE7FE252C4F2D4ED8E7FF252A4F2C4E9E
:10605000D4E74FF41056FC25274FCFE72B2F7FF6C0
:106060006DAF2022204626F014F805F110032361BD
:10607000AB070DD001AB05F128061A462868696800
:10608000083503C2B5421346F7D1286801AD106048
:106090006B68103F2360AB6869466360EB6820461D
:1060A000A36001236761E3601BF048FE28B1202252
:1060B0000021204625F0EDFF40E7B8F80030009EB3
:1060C00003F44F42B2F5824F0ED1DAB2122A0BD14D
:1060D00023F0FF03B3F5824F06D1730062691C33CE
:1060E0009A42BFF43DAFE2E73346F7E76FF0850031
:1060F0009AE76FF0910097E72000008000440002CB
:10610000004400032DE9F04F8FB0DDF86080814638
:106110000C4692469B461A9FB8F1000F05D16FF0CE
:10612000860420460FB0BDE8F08F002FF7D000287E
:10613000F5D02022002106A825F0ABFF06A81BF011
:10614000EEFD10B16FF09204EBE714F47C1FC4F382
:1061500005452AD0102DE2D8199B9D4233D81D4BFE
:1061600024F47E149C4231D1002302AECDE90233E7
:10617000CDE9043352465B464946009606A8FEF731
:1061800007FD044698B92A463146404625F089FF66
:10619000234633550134102CFBD100243D6006A862
:1061A0001BF0C7FD0028BCD0CCE71025D4E7212880
:1061B00006D0012814BF6FF092046FF08B04EEE755
:1061C0006FF08604EBE76FF08904AAE76FF08504AF
:1061D000A7E700BF0002C00370B50E46144605468F
:1061E00010B96FF0860070BD0029FAD03822002166
:1061F00025F04FFF094B24F47E129A420AD13388CE
:10620000B3F5105F06D1C4F30543102BE9D8002085
:106210002C60E8E76FF08500E5E700BF0002C003EF
:10622000F0B50F4616461D4604468BB088B302B93A
:106230007BBB2022002102A825F02BFF02A81BF027
:106240006EFD20B16FF0920420460BB0F0BD2368C4
:10625000114A23F47E13934215D135B9002402A8C4
:106260001BF067FD0028EFD0ECE733463A46009577
:1062700002A9201DFEF76EFD012807D00028EDD0F1
:106280006FF09204EBE76FF08804E8E76FF08B049F
:10629000E5E76FF08604D7E70002C0032DE9F0417F
:1062A0008CB0884616461D460446129F002840D0F2
:1062B000002A3ED0002B3CD0002F3AD0102B036890
:1062C00028BF102513F47C1FC3F3054202D095426A
:1062D00028BF15461A4A23F47E1393422CD120225C
:1062E000002104A825F0D5FE002304A8CDE9003341
:1062F000CDE902331BF013FD40B96B46424604A9B9
:10630000201DFEF7A3FC30B100233B606FF092002C
:106310000CB0BDE8F08104A81BF00BFD044600287A
:10632000F2D12A466946304625F0BBFE20463D6044
:10633000EEE76FF08600EBE76FF08800E8E700BF5C
:106340000002C0032DE9F0410E4617469846044668
:1063500000B3F9B1F2B19822002125F09AFE31463E
:10636000069A04F16000FFF737FF0546A0B92346FF
:10637000424639463046FFF7B7FD054660B9728898
:10638000D208A2F110011029E26503D80A4BCB40D4
:10639000DB0704D46FF086052846BDE8F081636909
:1063A0001C329342F6D304F120031846216925F0EC
:1063B00078FE2061F0E700BF010101000023C36007
:1063C00001F13803036120230A6843618B6D0B4997
:1063D00022F47E128A42436003D001F580718A4222
:1063E00008D1102B01D0182B02D103600020704778
:1063F000202BFAD06FF08800704700BF0001C00367
:1064000070B505460C461BF072FB0C2D064616D8DF
:106410000C2D18D8DFE805F01B1B171B1B2A171BB8
:106420002E17311734000123194AAB4013421DD1F6
:10643000132D2AD00D2D06D14FF4F06022E0A5F1E6
:106440000D03122BEFD900232380212409E08020A3
:10645000FDF73EFB4FF6FF73984220800CBF0E24E1
:10646000002430461BF049FB204670BD00232380EA
:106470000F24F6E74FF48060EAE74FF44060E7E767
:106480004FF4C060FDF706FBE4E74FF4E060F9E786
:10649000008023D4B8B1036813F4E07F03F03F0019
:1064A000C3F382120AD0012A0DD1084B41B103F582
:1064B0008053012282401A6000207047044BF5E7A8
:1064C00003F50053F5E70E20704700BF68800050C9
:1064D0006480005030B58BB06D46774C0FCC0FC543
:1064E00054F8043B68462B604FF07E6393F89C3071
:1064F0006D46FF2B08BF24238DF80130FDF726FCE5
:106500003220FDF761FC0FCC0FC50FCC0FC594E80E
:10651000030085E80300694BD3F84C21110340F1D7
:10652000AE80A3F5FE431C884FF6FF739C4208BF64
:1065300057248DF81940FDF7D3FB044484F3080475
:106540005F488DF81840FCF7DBFB6846FDF7CCFA96
:106550003220FDF73FFC5B48FDF716FD5A48FDF77A
:1065600087FD5A4C01213620FDF73AF80020FDF74F
:1065700037FCFDF7E7FC236F002023F0070343F00F
:1065800003032367236F23F4744343F48063236777
:106590001BF02CFB4E4BD3F8FC20D20173D4D4F863
:1065A000803023F0030343F00103C4F88030D4F8B3
:1065B0008030C4F88030454CD4F8203123F00703F4
:1065C00043F00203C4F82031D4F8283123F0070344
:1065D00043F00203C4F82831D4F8803123F00303D8
:1065E00043F00103C4F88031D4F8403123F00303B1
:1065F00043F00203C4F84031D4F8603123F00303C0
:1066000043F00203C4F86031D4F8403223F00303AE
:1066100043F00203C4F84032D4F8003223F00703F9
:1066200043F00203C4F80032D4F8083223F0070321
:1066300043F00203C4F80832D4F8703223F00303A5
:1066400043F00103C4F87032D4F8203223F007037A
:1066500043F00103C4F82032FDF704FA4FF0E022C2
:106660000020136963F004031361D4F8603223F04F
:10667000070343F00103C4F860320BB030BDD3F818
:106680005041E4B255E7D3F8FC2022F08072C3F801
:10669000FC20D4F8802022F0030242F00102C4F86A
:1066A0008020D4F88020C4F88020D3F8FC2042F069
:1066B0008072C3F8FC207EE750E003080080E00F02
:1066C000C017530200B4C404C0EA21010080005086
:1066D00000ED00E007B5094B18689A889B79009097
:1066E0006846ADF804208DF80630FDF755FE0C2005
:1066F000FDF78AFE002003B05DF804FB8CE0030880
:1067000070B501F09BFA0446E8B901F003FD01F011
:106710007FFB4FF4167343430C4A03F5742303F2D3
:106720003F23B3FBF2F30A490A480B600A230268CD
:10673000094D0E68013B45F8046B0E6813F0FF032A
:106740003244F6D10260204670BD00BF40420F00C7
:106750006C1500203C15002040150020012208B5D2
:10676000034B1A701CF089FC024B186008BD00BF77
:106770000D2200203815002010B501F049FB044619
:106780001BF0ABF9844207D91CF085FC20B1012233
:10679000024B1860024B1A7010BD00BF3815002064
:1067A0000D220020F8B51F4C2378E3B11CF065FCE6
:1067B0001D4B1E4D1B68C01A28602B68A3B12B68A7
:1067C0002B6001F025FB4FF416725043184A00F578
:1067D000742000F23F20B0FBF2F02B682B6883425C
:1067E00004D900232370F8BD0123E9E71148124EB4
:1067F0000378296856F82320104F511A3A68521A24
:1068000029683A6046F823100A210932B2FBF1F2F6
:106810000B4D0133DBB22A60B3FBF1F201FB123303
:106820000370DEE70D2200203815002068150020D7
:1068300040420F000E220020401500203C15002091
:106840006C150020014B1868704700BF6C150020C4
:1068500070B502212C2000F0B5F84FF48012042509
:106860000E4C0F4B0F4E5A6604F500535E672C20FA
:106870005D671E671D6700F097F82C2000F086F812
:1068800004F580535E675D67A36A23F00073A3621B
:10689000A36A43F48053A36270BD00BF0040005A56
:1068A00000900050010000A0064B074A996D11F0BE
:1068B000050F01D0117811B10028F7D170470120E0
:1068C000704700BF0040005A0F220020154B10B542
:1068D0001C6F14F004020FD003F500531A6708224E
:1068E0009A62FFF749FF00F0E1FE00F0C1FE0120CF
:1068F00001F0BCFB1CF0D1FBE30706D501220A4BDB
:106900001A67FFF74FFF00F0B3FE14F000521CBFF0
:10691000054B1A67002CBEBF4FF00042024B1A67AE
:1069200010BD00BF0040005A0060005A6FF0040321
:10693000502110B50A480B4C13F0800F03F10102EF
:1069400006D123444C2A83F800131346F4D110BD1A
:1069500003F00F03043B034419761346ECE700BF32
:1069600000ED00E000E100E0BFF34F8F0549064B6A
:10697000CA6802F4E0621343CB60BFF34F8F00BFDD
:10698000FDE700BF00ED00E00400FA05002807DB8A
:1069900001234109034A00F01F00834042F82130DF
:1069A000704700BF00E100E0002808DB0122430936
:1069B000034900F01F008240603341F823207047F4
:1069C00000E100E00028ACBF00F16040064B4FEA58
:1069D0000111C9B2ABBF00F5614000F00F0080F8B3
:1069E00000131954704700BF14ED00E073B5002484
:1069F000684600F0E7F90C4B00981C600B4B0C4DFF
:106A00001C600C4E0C4B306018602C601CF07EFA41
:106A10002046019B3268083BDB0853802B6801331A
:106A20002B6002B070BD00BF7415002070150020EF
:106A300078150020801500207C1500202DE9F04FEE
:106A40000026154689B04A1C0C4614BF89464FF0F3
:106A5000080998460796002B00F0DB801E6000288E
:106A600000F0D980C71D1BF042F827F0070B07ABD9
:106A70002146039000932A463346584600F0ACF96D
:106A8000079C064604B130B903981BF036F819206C
:106A900009B0BDE8F08FDFF89CA16288DAF8001039
:106AA000D300C0EBC2020139272A0493CAF80010B0
:106AB00040F28280002D5AD183450BF1080551D058
:106AC000494620461CF0B4F981460790079A02EB2C
:106AD000050B58461CF01AFA0799C5F3CF054A88EA
:106AE000ABF80450521BABF80220CA88002A3BD0F6
:106AF000551BADB201EBC202ABF8065095808A88F7
:106B00004849A9F80420BBF80420FF08A9F806208A
:106B10000A68A9F80270944208BFC1F800B042495F
:106B20000A68944201D1C1F800B099F8002042F0FF
:106B3000010289F80020DAF800200132CAF80020AA
:106B40003A4A0398136833441360394A11688B42F8
:106B500088BF13601AF0D1FF09F108030020C8F8BC
:106B6000003095E7A146B1E7ABF80620C7E704EB94
:106B70000209484605921CF0C9F9079C059AF108DC
:106B8000E088A9F80210D108A9F8041088B1049B84
:106B9000C3EBC0013144C1F3CF0104EBC000A9F83D
:106BA00006108180083AD2086280B9F80420E28099
:106BB000BBE7A9F80600F5E7012D2ED104F1080284
:106BC000B2FBF9F109FB11224AB3494620461CF0F9
:106BD0002FF9814699F80020DAF8003042F00102DE
:106BE000104F114D89F8002083B13B689C4204D1BD
:106BF0004946002000F038F938602B689C429FD14C
:106C00004946012000F030F9286099E73B602B608D
:106C100096E722203CE721203AE78345D5D1A146DB
:106C2000D8E700BF801500207C15002074150020D7
:106C300070150020781500202DE9F74304466846BA
:106C400000F0C0F8002C00F0B1801AF050FF14F8EA
:106C500008CC81461CF0010F00F0AA8034F8061C15
:106C6000002900F0A580534D34F8047CD5F800E0ED
:106C70004A1C0EF10103A4F1080692B22B60002F0A
:106C800037D0A6EBC70393F800800CF0020C18F085
:106C9000010F20D1BCF1000F20D15A8802311144DC
:106CA0008AB2C5F800E034F802CCBCF1000F22D162
:106CB00014F8085C511E6FF3000504F8085C002509
:106CC00089B224F8065C5980197865F300011970BF
:106CD0000021D9802FE0BCF1000F0AD014F8081C65
:106CE00017446FF3410104F8081C0021BAB29980DF
:106CF000D9E73346D7E706EBCC01DDE9007007445E
:106D0000B942D5D216F83C6016F001072ED014F81F
:106D1000085C6FF3000504F8085C002524F8065CA5
:106D2000541E5C801C7865F300041C70CC1AC4F3FC
:106D3000CF04DC808C80204C216819B1994201D8A5
:106D4000498801B923601D4C216819B1994201D3CA
:106D5000498801B923601A4948460B689B1A0B60A1
:106D60001AF0CBFE002003B0BDE8F0834E884F80C0
:106D700001363244CE8892B2B6B101EBC6012E681C
:106D8000013E2E6014F8085C6FF3000504F8085CFF
:106D9000002524F8065C541E5C801C7865F3000412
:106DA0001C700029C2D193E73146E8E72220DAE7D8
:106DB0000120D8E778150020801500207C150020E0
:106DC000741500200249034A0160521A426070475C
:106DD000A026002000000420F0B54C1C074608BF88
:106DE0000821AAB91E480468002C37D06688DB0049
:106DF00003EBC606C1F1000C2078C0070AD52ABBF8
:106E0000E08850B304EBC004668803EBC606F3E7E2
:106E10001448E8E7BE42F2D362B904F10805B5FBB5
:106E2000F1F001FB1055E8190DB1B042E8D8059B0F
:106E30001C60F0BD08290ED06588013504EBC5053E
:106E4000E81B00EA0C00281A8642F0D2A08820B184
:106E5000A4EBC004D8E73846E9E704462046E6E755
:106E6000801500207C15002013B50446084621B982
:106E70006846FFF7A7FF6CB900980378DA0707D5D3
:106E80005CB9C3889BB100EBC3000378DB07F8D47F
:106E900002B010BD164B1868EFE7012C07D18388AC
:106EA0002BB1A0EBC3000378D907F8D4F0E768460C
:106EB000FFF788FF002300980278D2070CD4002C3B
:106EC000E6D0C388002BE3D000EBC30210F83330C8
:106ED000DB0706D503461046C28822B100EBC2008C
:106EE000EAE71046EDE7002BE6D01846D0E700BFF2
:106EF0007C150020BFF35F8F074B5A6A22F4803263
:106F00005A62D3F8942022F00102C3F89420BFF310
:106F10004F8FBFF36F8F704700ED00E038B5FFF77C
:106F2000E9FF284A2848D2F8C030284D23F0FF0353
:106F300043F0A003C2F8C030254B04689D4204F121
:106F400001011ED1234BC2F89840C2F89C3003F5D2
:106F50007F3303F2FE33C2F8A0300160BFF35F8FCE
:106F60000522184BC3F894205A6A42F480325A62C0
:106F7000BFF34F8FBFF36F8FBFF34F8FBFF36F8F91
:106F800038BD23F01F03203BB3F1005F09D3C2F8E3
:106F90009840104C43F00103C2F89C40C2F8A03066
:106FA00001600D4B0168074A23F01F0343F0030300
:106FB000C2F89810C2F89C30084B0131C2F8A030DA
:106FC000CBE700BF00ED00E084150020B0240020D6
:106FD0000423002003000020CF240020E1FF032031
:106FE0002DE9F0410D461146DFF8E080D8F8004069
:106FF000B4F5807F34BF00271A27FFF77BFF1F29D6
:107000002ED90021C2061CBF20F01F0020302E4EBA
:10701000EB0618BF25F01F05CBB29C4235D8D6F839
:10702000C03020F01F0023F47F4343F48073C6F880
:10703000C03040F003041AF05AFDD8F8003025F0B3
:107040001F0141F00301C6F89830C6F89C40C6F80D
:10705000A0101AF052FDD8F800300133C8F8003003
:10706000BFF35F8F0522184BC3F894205A6A42F48D
:1070700080325A62BFF34F8FBFF36F8FBFF34F8FD2
:10708000BFF36F8F3846BDE8F081C6F89830D6F868
:107090009C30D6F8A02023F01F03984222F01F0254
:1070A00001D195420BD0904201D89D4209D2D6F829
:1070B0009830013123F0FF03C6F89830ACE7002781
:1070C000CEE72827CCE700BF00ED00E084150020C4
:1070D000BFF34F8F0549064BCA6802F4E0621343C1
:1070E000CB60BFF34F8F00BFFDE700BF00ED00E0B6
:1070F0000400FA05054B1A782AB95B78002B0CBFFF
:107100000320022070470120704700BF1A22002090
:107110000329F8B598BF124B05460E468CBF0024D4
:107120005C5C032805D8DFE800F002080B0E44F091
:1071300002040C4B1F684FB9F8BD44F00804F8E78F
:1071400044F02004F5E744F08004F2E77B681A6815
:10715000144203D0314628465B6898473F68EAE707
:10716000B0E00308B415002038B5104D2B78ABB152
:107170000F4C23781BB100F0D9FB002323700020B3
:1071800000F0FCFB0B4C50B100F002FC002301218D
:1071900020782B70FFF7BCFF0123237038BD01223C
:1071A000054B1A702278054B1A70F7E7152200205C
:1071B000132200201C22002016220020172200206B
:1071C00010B51AF08DFC064B04461B781BB1BDE8C8
:1071D00010401AF089BCFFF7C7FF2046F7E700BF51
:1071E00012220020094A137830B101331370084B82
:1071F0001B78012B03D87047013B13707047054B78
:107200001B780BB9FFF7B0BF704700BF1A220020F0
:107210001C2200201622002070B51AF061FC174EC7
:1072200005463378E3B900F009FD044620B128464D
:107230001AF05AFC204670BD00F052FF10481AF0B8
:107240005FFC01F029F80F4B1C6000F0E1FD0E4BD4
:107250000E4A1860536F23F0010353671BF07EFE44
:1072600000F058FA1BF075FE094B0024186001234A
:10727000284633701AF038FCDCE700BF1D220020DE
:10728000B415002088150020B015002000400050E3
:107290008C1500202DE9F843284A0138135C39B1D8
:1072A000274F013339781354012904D8BDE8F883F6
:1072B000013B1354FAE7FFF71DFF0128044635D8B8
:1072C0001AF00EFCDFF88480054698F8003013B3FE
:1072D0001C4E33781BB9012232701B4A1370DFF841
:1072E000709099F8003023B100F020FB002389F85A
:1072F000003028461AF0F8FB012000F03FFB1AF09E
:10730000EFFB337805461BB100F042FB00233370DE
:10731000002388F8003028461AF0E6FB3878A042AF
:10732000C4D02146FFF7F4FE3C70BFE70329F5D136
:107330000228F3D11BF011FEF0E700BF1A22002053
:107340001C220020122200201622002015220020DC
:107350001322002010B504461AF0C2FB002C0CBF0B
:10736000FF210121064A13780B44DBB21370B3FAF4
:1073700083F3BDE81040034A5B0913701AF0B4BBF5
:10738000192200201822002038B51AF0A9FB094B59
:1073900005461B78012B04D81AF0A6FB00242046D2
:1073A00038BD054B1C6800F04DFB044428461AF01C
:1073B0009BFBF4E71C2200208815002038B54160B3
:1073C00004461AF08DFB0546214604481AF09BFB43
:1073D0002846BDE838401AF087BB00BFB41500202E
:1073E000054B1B685843054B00F5742000F23F2005
:1073F000B0FBF3F0704700BFB015002040420F0013
:107400002DE9F04F85B0EFF3108772B6AFF300802F
:107410001AF0CFFA00286FD07F4EDFF82882337839
:1074200023B10020FFF7DEFE00233370FFF762FE7A
:107430000446002867D0841EE4B2012C6AD9FFF705
:1074400059FE01280546754CDFF8FC9100F28C804E
:107450002078854240F0C480207800F0DDFA99F869
:10746000003013B16E4B1B782370AFF3008007B967
:1074700062B6EFF3108772B66A4B1A7852B10022E7
:107480001A70674B20781B78984203D10121217034
:10749000FFF73EFE644800F00BFC1AF099FA05462F
:1074A0000028BCD1614BDFF89081187098F800304B
:1074B000ABB189F80000DFF8889199F800301BB172
:1074C00000F034FA89F80050002000F057FA002844
:1074D00000F0998000F05CFA002388F800303378DF
:1074E00023B10020FFF77EFE0023337000212078B7
:1074F000FFF70EFE00232370AFF3008007B962B6DA
:1075000005B0BDE8F08F3378002B98D0FFF76AFE06
:10751000347094E7002003A900F01AFC0446002808
:107520008DD1D8F80030039A9A4205D80120FFF790
:1075300059FE0123337082E73D4B1D6800F082FA4B
:10754000039B05449D42F1D200F092FA8200039918
:1075500042F0020292B2CDE900422346354A491B6D
:1075600031481BF006FD6AE7334BDFF8C0A01B78FB
:1075700003F0FF0B2BBB00F057F9207885422FD189
:107580009AF800307BB92C4D2B78002B7FF464AF38
:107590002A4B1B7823B900F0C3F90122284B1A703B
:1075A00001232B7058E7022DEDD18AF800B014E0CA
:1075B0002378022B24D100238AF8003024F0B2FA79
:1075C0001EE0207885420BD19AF80030002BDAD0EB
:1075D000022DD8D100238AF8003024F0A3FAD2E794
:1075E0000023DFF848A08AF8003099F8003013B97A
:1075F0002946FFF78DFD9AF800302570002BD7D172
:10760000012DC0D828E7012000F006FA07B962B6BC
:10761000EFF3108772B657E7142200201C220020D7
:107620001722002010220020901500201822002090
:1076300088150020C17101081522002019220020A0
:10764000132200208C1500201622002010B51AF0FD
:1076500047FA0022054B1C781A701AF045FA00F020
:10766000F9FCE4B22043C0B210BD00BF11220020DB
:1076700010B5094B1B786BB1084C237853B100F05F
:1076800087F90023064A237013700123054A1370FB
:10769000054A137010BD00BF1C22002016220020D6
:1076A000152200201122002010220020034B1B78FD
:1076B00013B10122024B1A70704700BF1C22002038
:1076C0001622002073B5114E0446337883420FD042
:1076D0004FF400730E4DADF8043058B101A8FCF71B
:1076E00045FD4020FFF77CFE2B68181A2860347097
:1076F00002B070BD8DF8050001A8FCF737FD4020F1
:10770000FFF76EFE2B681844F0E700BF78260020D4
:10771000B815002073B5002401A88DF80440FCF7CB
:10772000DBFD2046FFF7CEFF364A3749136F374857
:1077300003F007030B60D2F80011354C01F0030190
:1077400001604FF480103349032B48664FF400303A
:10775000486601F59831896901F00200C1F34001E2
:10776000217046D0D2F8203103F00703991E4B4216
:107770004B41D2F82811284D01F00701022908BF1A
:1077800043F0010325490B7058B33BB9D2F80031DF
:1077900003F003035A1E534253410B70194BD3F8A5
:1077A000003103F00303022B25D0032B26D0012B3D
:1077B00017D1FBF79FFA024698B1194B194EDC68B6
:1077C00000231946C4F30B04013404EB840401388C
:1077D000E4FB060119F08AF9FFF702FE2B68034467
:1077E0002B601F20FFF7FCFD2B6803442B6002B0C9
:1077F00070BD0123BDE7FBF7D9FADCE71AF068F9A1
:10780000D9E700BF00800050BC150020C015002043
:107810002022002000900050B815002021220020D6
:1078200000C0015040420F00074A0849D2F82031F9
:1078300003F007030B60D2F82831054A03F0070371
:1078400013601AF0ECB900BF00800050C81500208A
:10785000C415002008B5164B1A7822B300221A70FE
:10786000144B1A6F22F0070242F001021A67D3F894
:10787000202122F0070242F00302C3F82021D3F8AE
:10788000282122F0070242F00302C3F828210A4B04
:107890001B7833B10122094B5A60094A53689B0790
:1078A000FCD4FBF711FA0122064B5A6708BD00BF52
:1078B0001F220020008000502022002000E0015004
:1078C00000C001500060005A0122114B10B55A67E8
:1078D000104B114C1B78A3B102201BF0EDFB80B1C3
:1078E00000F066FA68B1A36DD90302D5E36D9A077B
:1078F00003D4094B9B6DDB0704D54FF48032044B56
:107900009A6210BD0122054B1A70FEF727FFF4E7BB
:107910000050005A212200200040005A1E22002060
:107920000122014B1A7070471F2200200F4B10B527
:107930001B7883B10E4C2378A3B90E4B9A6DD103FB
:1079400002D5DA6D920702D49B6DDB0704D54FF4A4
:107950008032094B9A6210BDFEF700FF4FF480326F
:10796000054B9A6200232370F5E700BF2122002017
:107970001E2200200040005A0050005A034B1B7882
:107980000BB1FEF791BF0120704700BF21220020FC
:1079900008B51AF045F9174B1B7833B10122164B85
:1079A0005A60164A9369DB07FCD5154B15491A6FC7
:1079B000096822F007020A431A671349D3F8202105
:1079C000096822F007020A43C3F820210F49D3F8BF
:1079D0002821096822F007020A43C3F828210C4B2A
:1079E0001B781BB14FF480320A4B9A62BDE8084005
:1079F000FBF76AB92022002000D0015000C00150DE
:107A000000800050BC150020C8150020C4150020BF
:107A1000212200200060005A02280AD003280BD03F
:107A200001280CD1064A136923F00403136130BF07
:107A300070470020FCF7A6BB0020FCF7C9BB7047CD
:107A400000ED00E008B5054B187818B1FEF7FAFE16
:107A500000EBD000024B1B68184408BD2122002017
:107A6000B81500200122014B1A7070472122002016
:107A7000014B1878704700BF2122002038B500F074
:107A800061FB0025084B094C1A682368C31A2AB108
:107A900023B15169994203D3C91A5161206038BD9D
:107AA00055615B1A9268F2E7D4150020D0150020CA
:107AB000C38870B504460D463BB9FFF765FC8542A7
:107AC000064602D21BF02CFA35460E4965610B685A
:107AD0008BB90C60A3600DE0AD1A9A681846656119
